{
  "_format": "hh-sol-artifact-1",
  "contractName": "Token",
  "sourceName": "contracts/Token.sol",
  "abi": [
    {
      "inputs": [
        {
          "internalType": "string",
          "name": "_name",
          "type": "string"
        },
        {
          "internalType": "string",
          "name": "_symbol",
          "type": "string"
        },
        {
          "internalType": "uint256",
          "name": "_totalSupply",
          "type": "uint256"
        }
      ],
      "stateMutability": "nonpayable",
      "type": "constructor"
    },
    {
      "inputs": [
        {
          "internalType": "address",
          "name": "",
          "type": "address"
        }
      ],
      "name": "balanceOf",
      "outputs": [
        {
          "internalType": "uint256",
          "name": "",
          "type": "uint256"
        }
      ],
      "stateMutability": "view",
      "type": "function"
    },
    {
      "inputs": [],
      "name": "decimal",
      "outputs": [
        {
          "internalType": "uint256",
          "name": "",
          "type": "uint256"
        }
      ],
      "stateMutability": "view",
      "type": "function"
    },
    {
      "inputs": [],
      "name": "name",
      "outputs": [
        {
          "internalType": "string",
          "name": "",
          "type": "string"
        }
      ],
      "stateMutability": "view",
      "type": "function"
    },
    {
      "inputs": [],
      "name": "symbol",
      "outputs": [
        {
          "internalType": "string",
          "name": "",
          "type": "string"
        }
      ],
      "stateMutability": "view",
      "type": "function"
    },
    {
      "inputs": [],
      "name": "totalSupply",
      "outputs": [
        {
          "internalType": "uint256",
          "name": "",
          "type": "uint256"
        }
      ],
      "stateMutability": "view",
      "type": "function"
    }
  ],
  "bytecode": "0x608060405260126002553480156200001657600080fd5b5060405162000acc38038062000acc83398181016040528101906200003c91906200021a565b826000908051906020019062000054929190620000e1565b5081600190805190602001906200006d929190620000e1565b50600254600a6200007f91906200035c565b816200008c919062000499565b600381905550600354600460003373ffffffffffffffffffffffffffffffffffffffff1673ffffffffffffffffffffffffffffffffffffffff168152602001908152602001600020819055505050506200066b565b828054620000ef906200053a565b90600052602060002090601f0160209004810192826200011357600085556200015f565b82601f106200012e57805160ff19168380011785556200015f565b828001600101855582156200015f579182015b828111156200015e57825182559160200191906001019062000141565b5b5090506200016e919062000172565b5090565b5b808211156200018d57600081600090555060010162000173565b5090565b6000620001a8620001a284620002cb565b620002a2565b905082815260208101848484011115620001c157600080fd5b620001ce84828562000504565b509392505050565b600082601f830112620001e857600080fd5b8151620001fa84826020860162000191565b91505092915050565b600081519050620002148162000651565b92915050565b6000806000606084860312156200023057600080fd5b600084015167ffffffffffffffff8111156200024b57600080fd5b6200025986828701620001d6565b935050602084015167ffffffffffffffff8111156200027757600080fd5b6200028586828701620001d6565b9250506040620002988682870162000203565b9150509250925092565b6000620002ae620002c1565b9050620002bc828262000570565b919050565b6000604051905090565b600067ffffffffffffffff821115620002e957620002e862000604565b5b620002f48262000633565b9050602081019050919050565b6000808291508390505b600185111562000353578086048111156200032b576200032a620005a6565b5b60018516156200033b5780820291505b80810290506200034b8562000644565b94506200030b565b94509492505050565b60006200036982620004fa565b91506200037683620004fa565b9250620003a57fffffffffffffffffffffffffffffffffffffffffffffffffffffffffffffffff8484620003ad565b905092915050565b600082620003bf576001905062000492565b81620003cf576000905062000492565b8160018114620003e85760028114620003f35762000429565b600191505062000492565b60ff841115620004085762000407620005a6565b5b8360020a915084821115620004225762000421620005a6565b5b5062000492565b5060208310610133831016604e8410600b8410161715620004635782820a9050838111156200045d576200045c620005a6565b5b62000492565b62000472848484600162000301565b925090508184048111156200048c576200048b620005a6565b5b81810290505b9392505050565b6000620004a682620004fa565b9150620004b383620004fa565b9250817fffffffffffffffffffffffffffffffffffffffffffffffffffffffffffffffff0483118215151615620004ef57620004ee620005a6565b5b828202905092915050565b6000819050919050565b60005b838110156200052457808201518184015260208101905062000507565b8381111562000534576000848401525b50505050565b600060028204905060018216806200055357607f821691505b602082108114156200056a5762000569620005d5565b5b50919050565b6200057b8262000633565b810181811067ffffffffffffffff821117156200059d576200059c62000604565b5b80604052505050565b7f4e487b7100000000000000000000000000000000000000000000000000000000600052601160045260246000fd5b7f4e487b7100000000000000000000000000000000000000000000000000000000600052602260045260246000fd5b7f4e487b7100000000000000000000000000000000000000000000000000000000600052604160045260246000fd5b6000601f19601f8301169050919050565b60008160011c9050919050565b6200065c81620004fa565b81146200066857600080fd5b50565b610451806200067b6000396000f3fe608060405234801561001057600080fd5b50600436106100575760003560e01c806306fdde031461005c57806318160ddd1461007a57806370a082311461009857806376809ce3146100c857806395d89b41146100e6575b600080fd5b610064610104565b60405161007191906102ca565b60405180910390f35b610082610192565b60405161008f91906102ec565b60405180910390f35b6100b260048036038101906100ad9190610259565b610198565b6040516100bf91906102ec565b60405180910390f35b6100d06101b0565b6040516100dd91906102ec565b60405180910390f35b6100ee6101b6565b6040516100fb91906102ca565b60405180910390f35b6000805461011190610392565b80601f016020809104026020016040519081016040528092919081815260200182805461013d90610392565b801561018a5780601f1061015f5761010080835404028352916020019161018a565b820191906000526020600020905b81548152906001019060200180831161016d57829003601f168201915b505050505081565b60035481565b60046020528060005260406000206000915090505481565b60025481565b600180546101c390610392565b80601f01602080910402602001604051908101604052809291908181526020018280546101ef90610392565b801561023c5780601f106102115761010080835404028352916020019161023c565b820191906000526020600020905b81548152906001019060200180831161021f57829003601f168201915b505050505081565b60008135905061025381610404565b92915050565b60006020828403121561026b57600080fd5b600061027984828501610244565b91505092915050565b600061028d82610307565b6102978185610312565b93506102a781856020860161035f565b6102b0816103f3565b840191505092915050565b6102c481610355565b82525050565b600060208201905081810360008301526102e48184610282565b905092915050565b600060208201905061030160008301846102bb565b92915050565b600081519050919050565b600082825260208201905092915050565b600061032e82610335565b9050919050565b600073ffffffffffffffffffffffffffffffffffffffff82169050919050565b6000819050919050565b60005b8381101561037d578082015181840152602081019050610362565b8381111561038c576000848401525b50505050565b600060028204905060018216806103aa57607f821691505b602082108114156103be576103bd6103c4565b5b50919050565b7f4e487b7100000000000000000000000000000000000000000000000000000000600052602260045260246000fd5b6000601f19601f8301169050919050565b61040d81610323565b811461041857600080fd5b5056fea2646970667358221220e78b0fec4354b141e9bf165c7d352a9d66910b84b01a9221e3a4fb6d019496ca64736f6c63430008040033",
  "linkReferences": {},
  "deployedLinkReferences": {}
}