{
  "_format": "hh-sol-artifact-1",
  "contractName": "Token",
  "sourceName": "contracts/Token.sol",
  "abi": [
    {
      "inputs": [
        {
          "internalType": "string",
          "name": "_name",
          "type": "string"
        },
        {
          "internalType": "string",
          "name": "_symbol",
          "type": "string"
        },
        {
          "internalType": "uint256",
          "name": "_totalSupply",
          "type": "uint256"
        }
      ],
      "stateMutability": "nonpayable",
      "type": "constructor"
    },
    {
      "anonymous": false,
      "inputs": [
        {
          "indexed": true,
          "internalType": "address",
          "name": "from",
          "type": "address"
        },
        {
          "indexed": true,
          "internalType": "address",
          "name": "to",
          "type": "address"
        },
        {
          "indexed": false,
          "internalType": "uint256",
          "name": "value",
          "type": "uint256"
        }
      ],
      "name": "Transfer",
      "type": "event"
    },
    {
      "inputs": [
        {
          "internalType": "address",
          "name": "",
          "type": "address"
        },
        {
          "internalType": "address",
          "name": "",
          "type": "address"
        }
      ],
      "name": "allowance",
      "outputs": [
        {
          "internalType": "uint256",
          "name": "",
          "type": "uint256"
        }
      ],
      "stateMutability": "view",
      "type": "function"
    },
    {
      "inputs": [
        {
          "internalType": "address",
          "name": "_spender",
          "type": "address"
        },
        {
          "internalType": "uint256",
          "name": "_value",
          "type": "uint256"
        }
      ],
      "name": "approve",
      "outputs": [
        {
          "internalType": "bool",
          "name": "success",
          "type": "bool"
        }
      ],
      "stateMutability": "nonpayable",
      "type": "function"
    },
    {
      "inputs": [
        {
          "internalType": "address",
          "name": "",
          "type": "address"
        }
      ],
      "name": "balanceOf",
      "outputs": [
        {
          "internalType": "uint256",
          "name": "",
          "type": "uint256"
        }
      ],
      "stateMutability": "view",
      "type": "function"
    },
    {
      "inputs": [],
      "name": "decimal",
      "outputs": [
        {
          "internalType": "uint256",
          "name": "",
          "type": "uint256"
        }
      ],
      "stateMutability": "view",
      "type": "function"
    },
    {
      "inputs": [],
      "name": "name",
      "outputs": [
        {
          "internalType": "string",
          "name": "",
          "type": "string"
        }
      ],
      "stateMutability": "view",
      "type": "function"
    },
    {
      "inputs": [],
      "name": "symbol",
      "outputs": [
        {
          "internalType": "string",
          "name": "",
          "type": "string"
        }
      ],
      "stateMutability": "view",
      "type": "function"
    },
    {
      "inputs": [],
      "name": "totalSupply",
      "outputs": [
        {
          "internalType": "uint256",
          "name": "",
          "type": "uint256"
        }
      ],
      "stateMutability": "view",
      "type": "function"
    },
    {
      "inputs": [
        {
          "internalType": "address",
          "name": "_to",
          "type": "address"
        },
        {
          "internalType": "uint256",
          "name": "_value",
          "type": "uint256"
        }
      ],
      "name": "transfer",
      "outputs": [
        {
          "internalType": "bool",
          "name": "success",
          "type": "bool"
        }
      ],
      "stateMutability": "nonpayable",
      "type": "function"
    }
  ],
  "bytecode": "0x608060405260126002553480156200001657600080fd5b50604051620010b9380380620010b983398181016040528101906200003c91906200021a565b826000908051906020019062000054929190620000e1565b5081600190805190602001906200006d929190620000e1565b50600254600a6200007f91906200035c565b816200008c919062000499565b600381905550600354600460003373ffffffffffffffffffffffffffffffffffffffff1673ffffffffffffffffffffffffffffffffffffffff168152602001908152602001600020819055505050506200066b565b828054620000ef906200053a565b90600052602060002090601f0160209004810192826200011357600085556200015f565b82601f106200012e57805160ff19168380011785556200015f565b828001600101855582156200015f579182015b828111156200015e57825182559160200191906001019062000141565b5b5090506200016e919062000172565b5090565b5b808211156200018d57600081600090555060010162000173565b5090565b6000620001a8620001a284620002cb565b620002a2565b905082815260208101848484011115620001c157600080fd5b620001ce84828562000504565b509392505050565b600082601f830112620001e857600080fd5b8151620001fa84826020860162000191565b91505092915050565b600081519050620002148162000651565b92915050565b6000806000606084860312156200023057600080fd5b600084015167ffffffffffffffff8111156200024b57600080fd5b6200025986828701620001d6565b935050602084015167ffffffffffffffff8111156200027757600080fd5b6200028586828701620001d6565b9250506040620002988682870162000203565b9150509250925092565b6000620002ae620002c1565b9050620002bc828262000570565b919050565b6000604051905090565b600067ffffffffffffffff821115620002e957620002e862000604565b5b620002f48262000633565b9050602081019050919050565b6000808291508390505b600185111562000353578086048111156200032b576200032a620005a6565b5b60018516156200033b5780820291505b80810290506200034b8562000644565b94506200030b565b94509492505050565b60006200036982620004fa565b91506200037683620004fa565b9250620003a57fffffffffffffffffffffffffffffffffffffffffffffffffffffffffffffffff8484620003ad565b905092915050565b600082620003bf576001905062000492565b81620003cf576000905062000492565b8160018114620003e85760028114620003f35762000429565b600191505062000492565b60ff841115620004085762000407620005a6565b5b8360020a915084821115620004225762000421620005a6565b5b5062000492565b5060208310610133831016604e8410600b8410161715620004635782820a9050838111156200045d576200045c620005a6565b5b62000492565b62000472848484600162000301565b925090508184048111156200048c576200048b620005a6565b5b81810290505b9392505050565b6000620004a682620004fa565b9150620004b383620004fa565b9250817fffffffffffffffffffffffffffffffffffffffffffffffffffffffffffffffff0483118215151615620004ef57620004ee620005a6565b5b828202905092915050565b6000819050919050565b60005b838110156200052457808201518184015260208101905062000507565b8381111562000534576000848401525b50505050565b600060028204905060018216806200055357607f821691505b602082108114156200056a5762000569620005d5565b5b50919050565b6200057b8262000633565b810181811067ffffffffffffffff821117156200059d576200059c62000604565b5b80604052505050565b7f4e487b7100000000000000000000000000000000000000000000000000000000600052601160045260246000fd5b7f4e487b7100000000000000000000000000000000000000000000000000000000600052602260045260246000fd5b7f4e487b7100000000000000000000000000000000000000000000000000000000600052604160045260246000fd5b6000601f19601f8301169050919050565b60008160011c9050919050565b6200065c81620004fa565b81146200066857600080fd5b50565b610a3e806200067b6000396000f3fe608060405234801561001057600080fd5b50600436106100885760003560e01c806376809ce31161005b57806376809ce31461012957806395d89b4114610147578063a9059cbb14610165578063dd62ed3e1461019557610088565b806306fdde031461008d578063095ea7b3146100ab57806318160ddd146100db57806370a08231146100f9575b600080fd5b6100956101c5565b6040516100a29190610749565b60405180910390f35b6100c560048036038101906100c09190610655565b610253565b6040516100d2919061072e565b60405180910390f35b6100e36102e0565b6040516100f091906107ab565b60405180910390f35b610113600480360381019061010e91906105f0565b6102e6565b60405161012091906107ab565b60405180910390f35b6101316102fe565b60405161013e91906107ab565b60405180910390f35b61014f610304565b60405161015c9190610749565b60405180910390f35b61017f600480360381019061017a9190610655565b610392565b60405161018c919061072e565b60405180910390f35b6101af60048036038101906101aa9190610619565b6105a1565b6040516101bc91906107ab565b60405180910390f35b600080546101d2906108e7565b80601f01602080910402602001604051908101604052809291908181526020018280546101fe906108e7565b801561024b5780601f106102205761010080835404028352916020019161024b565b820191906000526020600020905b81548152906001019060200180831161022e57829003601f168201915b505050505081565b600081600560003373ffffffffffffffffffffffffffffffffffffffff1673ffffffffffffffffffffffffffffffffffffffff16815260200190815260200160002060008573ffffffffffffffffffffffffffffffffffffffff1673ffffffffffffffffffffffffffffffffffffffff168152602001908152602001600020819055506001905092915050565b60035481565b60046020528060005260406000206000915090505481565b60025481565b60018054610311906108e7565b80601f016020809104026020016040519081016040528092919081815260200182805461033d906108e7565b801561038a5780601f1061035f5761010080835404028352916020019161038a565b820191906000526020600020905b81548152906001019060200180831161036d57829003601f168201915b505050505081565b600081600460003373ffffffffffffffffffffffffffffffffffffffff1673ffffffffffffffffffffffffffffffffffffffff168152602001908152602001600020541015610416576040517f08c379a000000000000000000000000000000000000000000000000000000000815260040161040d9061078b565b60405180910390fd5b600073ffffffffffffffffffffffffffffffffffffffff168373ffffffffffffffffffffffffffffffffffffffff161415610486576040517f08c379a000000000000000000000000000000000000000000000000000000000815260040161047d9061076b565b60405180910390fd5b81600460003373ffffffffffffffffffffffffffffffffffffffff1673ffffffffffffffffffffffffffffffffffffffff16815260200190815260200160002060008282546104d59190610838565b9250508190555081600460008573ffffffffffffffffffffffffffffffffffffffff1673ffffffffffffffffffffffffffffffffffffffff168152602001908152602001600020600082825461052b91906107e2565b925050819055508273ffffffffffffffffffffffffffffffffffffffff163373ffffffffffffffffffffffffffffffffffffffff167fddf252ad1be2c89b69c2b068fc378daa952ba7f163c4a11628f55a4df523b3ef8460405161058f91906107ab565b60405180910390a36001905092915050565b6005602052816000526040600020602052806000526040600020600091509150505481565b6000813590506105d5816109da565b92915050565b6000813590506105ea816109f1565b92915050565b60006020828403121561060257600080fd5b6000610610848285016105c6565b91505092915050565b6000806040838503121561062c57600080fd5b600061063a858286016105c6565b925050602061064b858286016105c6565b9150509250929050565b6000806040838503121561066857600080fd5b6000610676858286016105c6565b9250506020610687858286016105db565b9150509250929050565b61069a8161087e565b82525050565b60006106ab826107c6565b6106b581856107d1565b93506106c58185602086016108b4565b6106ce81610977565b840191505092915050565b60006106e6600f836107d1565b91506106f182610988565b602082019050919050565b60006107096014836107d1565b9150610714826109b1565b602082019050919050565b610728816108aa565b82525050565b60006020820190506107436000830184610691565b92915050565b6000602082019050818103600083015261076381846106a0565b905092915050565b60006020820190508181036000830152610784816106d9565b9050919050565b600060208201905081810360008301526107a4816106fc565b9050919050565b60006020820190506107c0600083018461071f565b92915050565b600081519050919050565b600082825260208201905092915050565b60006107ed826108aa565b91506107f8836108aa565b9250827fffffffffffffffffffffffffffffffffffffffffffffffffffffffffffffffff0382111561082d5761082c610919565b5b828201905092915050565b6000610843826108aa565b915061084e836108aa565b92508282101561086157610860610919565b5b828203905092915050565b60006108778261088a565b9050919050565b60008115159050919050565b600073ffffffffffffffffffffffffffffffffffffffff82169050919050565b6000819050919050565b60005b838110156108d25780820151818401526020810190506108b7565b838111156108e1576000848401525b50505050565b600060028204905060018216806108ff57607f821691505b6020821081141561091357610912610948565b5b50919050565b7f4e487b7100000000000000000000000000000000000000000000000000000000600052601160045260246000fd5b7f4e487b7100000000000000000000000000000000000000000000000000000000600052602260045260246000fd5b6000601f19601f8301169050919050565b7f496e76616c696420616464726573730000000000000000000000000000000000600082015250565b7f496e73756666696369656e742062616c616e6365000000000000000000000000600082015250565b6109e38161086c565b81146109ee57600080fd5b50565b6109fa816108aa565b8114610a0557600080fd5b5056fea264697066735822122014e0e6e88153e16cf1507b9ba2108663bc2e3a5d051e6cf9c1c9ea15c9fb2afe64736f6c63430008040033",
  "linkReferences": {},
  "deployedLinkReferences": {}
}