{
  "_format": "hh-sol-artifact-1",
  "contractName": "Exchange",
  "sourceName": "contracts/Exchange.sol",
  "abi": [
    {
      "inputs": [
        {
          "internalType": "address",
          "name": "_feeAccount",
          "type": "address"
        },
        {
          "internalType": "uint256",
          "name": "_feePercent",
          "type": "uint256"
        }
      ],
      "stateMutability": "nonpayable",
      "type": "constructor"
    },
    {
      "anonymous": false,
      "inputs": [
        {
          "indexed": false,
          "internalType": "address",
          "name": "token",
          "type": "address"
        },
        {
          "indexed": false,
          "internalType": "address",
          "name": "user",
          "type": "address"
        },
        {
          "indexed": false,
          "internalType": "uint256",
          "name": "amount",
          "type": "uint256"
        },
        {
          "indexed": false,
          "internalType": "uint256",
          "name": "balance",
          "type": "uint256"
        }
      ],
      "name": "Deposit",
      "type": "event"
    },
    {
      "inputs": [
        {
          "internalType": "address",
          "name": "_token_address",
          "type": "address"
        },
        {
          "internalType": "address",
          "name": "_user",
          "type": "address"
        }
      ],
      "name": "balanceOf",
      "outputs": [
        {
          "internalType": "uint256",
          "name": "",
          "type": "uint256"
        }
      ],
      "stateMutability": "view",
      "type": "function"
    },
    {
      "inputs": [
        {
          "internalType": "address",
          "name": "_tokenAddress",
          "type": "address"
        },
        {
          "internalType": "uint256",
          "name": "_amount",
          "type": "uint256"
        }
      ],
      "name": "depositToken",
      "outputs": [],
      "stateMutability": "nonpayable",
      "type": "function"
    },
    {
      "inputs": [],
      "name": "feeAccount",
      "outputs": [
        {
          "internalType": "address",
          "name": "",
          "type": "address"
        }
      ],
      "stateMutability": "view",
      "type": "function"
    },
    {
      "inputs": [],
      "name": "feePercent",
      "outputs": [
        {
          "internalType": "uint256",
          "name": "",
          "type": "uint256"
        }
      ],
      "stateMutability": "view",
      "type": "function"
    },
    {
      "inputs": [
        {
          "internalType": "address",
          "name": "",
          "type": "address"
        },
        {
          "internalType": "address",
          "name": "",
          "type": "address"
        }
      ],
      "name": "tokens",
      "outputs": [
        {
          "internalType": "uint256",
          "name": "",
          "type": "uint256"
        }
      ],
      "stateMutability": "view",
      "type": "function"
    }
  ],
  "bytecode": "0x608060405234801561001057600080fd5b506040516108dc3803806108dc833981810160405281019061003291906100aa565b816000806101000a81548173ffffffffffffffffffffffffffffffffffffffff021916908373ffffffffffffffffffffffffffffffffffffffff160217905550806001819055505050610150565b60008151905061008f81610122565b92915050565b6000815190506100a481610139565b92915050565b600080604083850312156100bd57600080fd5b60006100cb85828601610080565b92505060206100dc85828601610095565b9150509250929050565b60006100f1826100f8565b9050919050565b600073ffffffffffffffffffffffffffffffffffffffff82169050919050565b6000819050919050565b61012b816100e6565b811461013657600080fd5b50565b61014281610118565b811461014d57600080fd5b50565b61077d8061015f6000396000f3fe608060405234801561001057600080fd5b50600436106100575760003560e01c8063338b5dea1461005c578063508493bc1461007857806365e17c9d146100a85780637fd6f15c146100c6578063f7888aec146100e4575b600080fd5b61007660048036038101906100719190610483565b610114565b005b610092600480360381019061008d9190610447565b610332565b60405161009f91906105e0565b60405180910390f35b6100b0610357565b6040516100bd9190610529565b60405180910390f35b6100ce61037b565b6040516100db91906105e0565b60405180910390f35b6100fe60048036038101906100f99190610447565b610381565b60405161010b91906105e0565b60405180910390f35b8173ffffffffffffffffffffffffffffffffffffffff166323b872dd3330846040518463ffffffff1660e01b815260040161015193929190610544565b602060405180830381600087803b15801561016b57600080fd5b505af115801561017f573d6000803e3d6000fd5b505050506040513d601f19601f820116820180604052508101906101a391906104bf565b6101e2576040517f08c379a00000000000000000000000000000000000000000000000000000000081526004016101d9906105c0565b60405180910390fd5b80600260008473ffffffffffffffffffffffffffffffffffffffff1673ffffffffffffffffffffffffffffffffffffffff16815260200190815260200160002060003373ffffffffffffffffffffffffffffffffffffffff1673ffffffffffffffffffffffffffffffffffffffff168152602001908152602001600020600082825461026e919061060c565b925050819055507fdcbc1c05240f31ff3ad067ef1ee35ce4997762752e3a095284754544f4c709d7823383600260008773ffffffffffffffffffffffffffffffffffffffff1673ffffffffffffffffffffffffffffffffffffffff16815260200190815260200160002060003373ffffffffffffffffffffffffffffffffffffffff1673ffffffffffffffffffffffffffffffffffffffff16815260200190815260200160002054604051610326949392919061057b565b60405180910390a15050565b6002602052816000526040600020602052806000526040600020600091509150505481565b60008054906101000a900473ffffffffffffffffffffffffffffffffffffffff1681565b60015481565b6000600260008473ffffffffffffffffffffffffffffffffffffffff1673ffffffffffffffffffffffffffffffffffffffff16815260200190815260200160002060008373ffffffffffffffffffffffffffffffffffffffff1673ffffffffffffffffffffffffffffffffffffffff16815260200190815260200160002054905092915050565b60008135905061041781610702565b92915050565b60008151905061042c81610719565b92915050565b60008135905061044181610730565b92915050565b6000806040838503121561045a57600080fd5b600061046885828601610408565b925050602061047985828601610408565b9150509250929050565b6000806040838503121561049657600080fd5b60006104a485828601610408565b92505060206104b585828601610432565b9150509250929050565b6000602082840312156104d157600080fd5b60006104df8482850161041d565b91505092915050565b6104f181610662565b82525050565b60006105046018836105fb565b915061050f826106d9565b602082019050919050565b610523816106a0565b82525050565b600060208201905061053e60008301846104e8565b92915050565b600060608201905061055960008301866104e8565b61056660208301856104e8565b610573604083018461051a565b949350505050565b600060808201905061059060008301876104e8565b61059d60208301866104e8565b6105aa604083018561051a565b6105b7606083018461051a565b95945050505050565b600060208201905081810360008301526105d9816104f7565b9050919050565b60006020820190506105f5600083018461051a565b92915050565b600082825260208201905092915050565b6000610617826106a0565b9150610622836106a0565b9250827fffffffffffffffffffffffffffffffffffffffffffffffffffffffffffffffff03821115610657576106566106aa565b5b828201905092915050565b600061066d82610680565b9050919050565b60008115159050919050565b600073ffffffffffffffffffffffffffffffffffffffff82169050919050565b6000819050919050565b7f4e487b7100000000000000000000000000000000000000000000000000000000600052601160045260246000fd5b7f6661696c656420746f206465706f73697420746f6b656e730000000000000000600082015250565b61070b81610662565b811461071657600080fd5b50565b61072281610674565b811461072d57600080fd5b50565b610739816106a0565b811461074457600080fd5b5056fea264697066735822122074558a14bc5e813b6e90eaceb4f7ad02dc8567f273e449e2b6711e60711f7ebe64736f6c63430008040033",
  "linkReferences": {},
  "deployedLinkReferences": {}
}